S0150000727A74326D5F6770745F646D612E73726563D5
S3090000004000000000B6
S31560000000000000000000000000000000000000008A
S31560000010000000004C00006000600000002010003E
S3156000002000000000000000003F0000000000070024
S31560000030000000000000000000000000000000005A
S311600000400000000006000000A8E00000C0
S3156000004C83070BE3000040E3300F81EE111F91EE46
S3156000005C021281E3111F81EE38009FE5100F0CEE42
S3156000006C101F1FEE021081E3011081E34FF07FF544
S3156000007C101F0FEE6FF07FF500000FE11F00C0E35D
S3156000008C130080E300F36EE10C109FE501F32EE1A3
S3156000009C6E0060E11EFF2FE100000000642010007E
S315600000AC00BE7047110002F128D09FE5120002F1E4
S315600000BC24D09FE5170002F120D09FE51B0002F1CA
S315600000CC1CD09FE51F0002F118D09FE5130002F1CA
S315600000DC14D09FE5050000EAD0791000D0691000B5
S315600000ECD0991000D0891000D0491000D05910005A
S315600000FC10402DE9500F11EE0F0680E3500F01EE04
S3156000010C6FF07FF5100AF8EE010180E3100AE8EE55
S3156000011C6FF07FF50000A0E3880300FB9E0100FAF8
S3156000012C0100A0E3850300FB140100FA220100FA2A
S3156000013C6D0100FB0208A0E3101F11EE001081E1B7
S3156000014C4FF07FF5101F01EE6FF07FF5FF0B0BE3A1
S3156000015C880444E3001400E3081C40E3120F0AEE23
S3156000016C321F0AEE4FF07FF50000A0E3122000E389
S3156000017C002040E3C73F0FE3073040E3860000EB07
S3156000018C0100A0E3122000E3102040E3C73F0FE319
S3156000019C103040E3800000EB0200A0E3022000E395
S315600001AC002041E3C33F0FE31F3041E37A0000EBCD
S315600001BC0300A0E3122000E3002043E3C73F0FE3F4
S315600001CC1F3043E3740000EB0400A0E3122000E34D
S315600001DC002044E3C73F0FE3FF3F45E36E0000EBAF
S315600001EC0500A0E3022000E3002046E3C33F0FE3D3
S315600001FCFF3F47E3680000EB0600A0E3132000E333
S3156000020C002048E3CB3F0FE3FF3048E3620000EB8E
S3156000021C0700A0E3132000E3002148E3CB3F0FE384
S3156000022CFF3148E35C0000EB0800A0E3132000E319
S3156000023C002049E3CB3F0FE31F3049E3560000EB48
S3156000024C0900A0E3132000E3002449E3C93F0FE350
S3156000025C1F3449E3500000EB0A00A0E3132000E3CF
S3156000026C00204AE3CB3F0FE3FF304AE34A0000EB42
S3156000027C0B00A0E3132000E300204CE3C93F0FE31F
S3156000028CFF304CE3440000EB4FF07FF50000A0E339
S3156000029C150F07EE100F40EE6FF07FF5101F30EE66
S315600002AC072001E2042082E2E4409FE5A14104E0DC
S315600002BC145F6FE1DC709FE5A17607E00490A0E126
S315600002CC19B5A0E117C2A0E10CB08BE156BF07EEE1
S315600002DC019059E2F9FFFFAA017057E2F6FFFFAAF7
S315600002EC0100A0E3101F11EE001081E14FF07FF5C5
S315600002FC101F01EE6FF07FF5040001E3000040E390
S3156000030C101F11EE001081E14FF07FF5101F01EE0A
S3156000031C6FF07FF5AE0000FBC50000FADB0000FB5A
S3156000032C0000A0E37F100FE3FA1240E3010090E2B5
S3156000033C010050E1FCFFFF1A0200A0E3FF0200FB84
S3156000034CC60100FB3A0000FA101F1BEE031081E396
S3156000035C4FF07FF5101F0BEE6FF07FF5750000FA0E
S3156000036CF800A0E3160F04EE0100A0E3FC0F0CEE00
S3156000037C0100A0E39C1F1CEE001081E19C1F0CEE9B
S3156000038C6FF07FF5800100FAAF0000FBB9F7FBFB5D
S3156000039C1080BDE8FF030000FF7F0000320F06EE01
S315600003AC4FF07FF5132F06EE4FF07FF5333F06EED9
S315600003BC4FF07FF51EFF2FE11EFF2FE104E04EE2AA
S315600003CC1F056DF91F0002F10F102DE9100AF1EEF1
S315600003DC01002DE904D04DE2200B2DED200B6DEDC7
S315600003EC5C3F1CEE1C0F1CEE04002DE50D10A0E10D
S315600003FC041001E201D04DE002402DE92C109FE57E
S3156000040C31FF2FE10240BDE801D08DE004009DE490
S3156000041C3C0F0CEE200BFDEC200BBDEC04D08DE2FA
S3156000042C04009DE4100AE1EE0F10BDE8000ABDF869
S3156000043CAB29100010B5032000F068FB002375E0B3
S3156000044C43F2E012C0F2100252F823404FF4885186
S3156000045CC8F228111A0101EB03108C5043F22011DB
S3156000046CC0F2100151F82310416043F2C011C0F282
S3156000047C100151F823404FF49051C8F22811881896
S3156000048C8C5043F20011C0F2100151F823104160F8
S3156000049C43F2A011C0F2100151F823404FF4985169
S315600004ACC8F2281188188C5043F2E001C0F2100192
S315600004BC51F82310416043F28011C0F2100151F8DB
S315600004CC23404FF4A051C8F2281188188C5043F27F
S315600004DCC001C0F2100151F82310416043F2601163
S315600004ECC0F2100151F823404FF4A851C8F22811FC
S315600004FC88188C5043F2A001C0F2100151F82310F9
S3156000050C416043F24011C0F2100151F823404FF4A0
S3156000051CB851C8F2281188188C5043F28002C0F288
S3156000052C100252F8232042600133DBB2072B87D9C5
S3156000053C032000F0B1FA10BD0023CCF206031A6852
S3156000054C22F001021A6047F64002C0F27D121A626E
S3156000055C00229A60DA601A6842F001021A607047EB
S3156000056C02F1030C4FEA9C0C002304E050F8042BB8
S3156000057C41F8042B01336345F8D3BFF34F8F7047B3
S3156000058C08B543F20002C0F2100243F20001C0F259
S3156000059C1001521A41F24C00C6F20000FFF7E0FF60
S315600005AC08BD03318908002303E0002240F8042BC0
S315600005BC01338B42F9D3BFF34F8F704708B543F6BF
S315600005CCD011C0F2100143F20000C0F21000091AFB
S315600005DCFFF7E7FF08BD08B540F24002C0F2000223
S315600005EC40F20001C0F20001521A41F61C20C6F21C
S315600005FC0000FFF7B5FF41F21C52C0F2000240F258
S3156000060C0011C0F20001521A41F65C20C6F20000DD
S3156000061CFFF7A6FF42F2BC22C0F2000241F21C5167
S3156000062CC0F20001521A42F67C60C6F20000FFF777
S3156000063C97FF08BD08B542F28431C0F2000142F260
S3156000064CBC20C0F20000091AFFF7ABFF08BD08B565
S3156000065C012000F05BFA14EE161F002304EE163F21
S3156000066CC8F22803D3F8082322F02002C3F8082323
S3156000067CD3F808334FF44053C9F200031A7A1A7A46
S3156000068C1A7A1A7A1B7A04EE161F012000F004FA05
S3156000069C08BD38B542F2BC25C0F2000542F2BC2357
S315600006ACC0F20003ED1AAD10002407E042F2BC2341
S315600006BCC0F2000353F8243098470134AC42F5DBA2
S315600006CC42F2BC25C0F2000542F2BC23C0F2000324
S315600006DCED1AAD10002407E042F2BC23C0F2000311
S315600006EC53F8243098470134AC42F5DB38BD00230F
S315600006FCC8F228135A685B6803F0030312F0200FE4
S3156000070C0AD14FF40062C2F6AF72DA4043F20023AC
S3156000071CC0F210031A6070474FF48C42C2F2C332B7
S3156000072CDA4043F20023C0F210031A60704700B53A
S3156000073C83B00023C8F228131A22C0F200325A6022
S3156000074C5A6801925A6801925A6801925A680192E3
S3156000075C5A6801925A6801925A6801925B680193D1
S3156000076C0023C8F2280340F20662CFF612721A60B2
S3156000077C1A6801921A6801921A6801921A680192B3
S3156000078C1A6801921A6801921A6801921B680193A1
S3156000079C019BFFF7ACFF03B05DF804FB10B582B0AC
S315600007AC002401944FF48053C8F228034AF2015294
S315600007BCC3F8102A4FF48053C8F22813C3F8002AE2
S315600007CCFFF795FFFFF7B3FF2346C8F22813012204
S315600007DC1A67234602E000BF01339BB249F63F42DB
S315600007EC9342F8D90023C8F228130322C3F8802059
S315600007FC4FF40063C8F2281301221A8140F2FF32CB
S3156000080C9A8107E04FF40063C8F228131B7D13F03E
S3156000081C010F16D04FF40063C8F22813A5221A7480
S3156000082C01221A70FE2119701A701B78DBB2934282
S3156000083CE8D04FF40063C8F228131B7DDBB201933A
S3156000084CE0E74FF40063C8F2281301221A8540F2E0
S3156000085CFF329A8508E04FF40063C8F2281393F8C8
S3156000086C343013F0010F1CD04FF40063C8F2281318
S3156000087CA52283F83020012283F82020FE2183F8FC
S3156000088C201083F8202093F82030DBB29342E2D01C
S3156000089C4FF40063C8F2281393F83430DBB201933B
S315600008ACD9E74FF40063C8F228130122A3F8482055
S315600008BC40F2FF32A3F84C2008E04FF40063C8F214
S315600008CC281393F8543013F0010F1CD04FF40063C7
S315600008DCC8F22813A52283F85020012283F8402001
S315600008ECFE2183F8401083F8402093F84030DBB249
S315600008FC9342E2D04FF40063C8F2281393F8543055
S3156000090CDBB20193D9E74FF40063C8F228130122D6
S3156000091CA3F8682040F2FF32A3F86C2008E04FF48D
S3156000092C0063C8F2281393F8743013F0010F1CD0CF
S3156000093C4FF40063C8F22813A52283F870200122B5
S3156000094C83F86020FE2183F8601083F8602093F8AA
S3156000095C6030DBB29342E2D04FF40063C8F22813E6
S3156000096C93F87430DBB20193D9E74FF48053C8F235
S3156000097C28034FF42542C3F8102A4FF48053C8F26B
S3156000098C2813C3F8002A019B02B010BD4FF0144225
S3156000099C136843F0020313600022C9F2104200236D
S315600009AC53610CE042F23822C0F2000252F8230086
S315600009BC03F202314FF0144242F8210001331B2B33
S315600009CCF0D900220EE002F1A0039B0003F1144360
S315600009DC4FF0FF31596002F1E0039B0003F11443C1
S315600009EC596001320C2AEED9704708B5C0F3090379
S315600009FC10F4787F1ED043F20422C0F210021178F4
S31560000A0C481C1070203B43F20822C0F2100222F8F8
S31560000A1C1130BFF35F8F41F63C22C0F2000252F8F0
S31560000A2C2330984743F20423C0F210031A78013A34
S31560000A3C1A7008BD43F20422C0F210021178481CE9
S31560000A4C107043F20822C0F2100222F81130BFF384
S31560000A5C5F8F43F20002C0F2100252F823309847BF
S31560000A6CE0E708B5032000F051F84FF48053C8F264
S31560000A7C280301221A60002308E04FF48052C8F262
S31560000A8C2802191D012042F821000344072BF4D9D2
S31560000A9C032000F001F808BD43F6C813C0F210033A
S31560000AAC33F810309BB253B143F6C812C0F2100241
S31560000ABC32F810309BB2013B9BB222F8103043F6F1
S31560000ACCC813C0F2100333F810309BB2EBB94FF475
S31560000ADC8051C8F22801D1F8102A42F4254242F21C
S31560000AECA823C0F2000333F81030DB439BB21A40E4
S31560000AFCC1F8102A4FF48051C8F22811D1F8002A97
S31560000B0C42F425421340C1F8003A704743F6C813C5
S31560000B1CC0F2100333F810309BB2DBB94FF480523D
S31560000B2CC8F22802D2F8103A42F2A821C0F20001AB
S31560000B3C31F810100B4343F42543C2F8103A4FF4C6
S31560000B4C8052C8F22812D2F8003A0B4343F425437C
S31560000B5CC2F8003A43F6C812C0F2100232F81030EE
S31560000B6C9BB201339BB222F81030704714EE162FED
S31560000B7C002304EE163F42F28033C0F200031B687A
S31560000B8C9BB94FF48053C8F22803D3F8101A4AF273
S31560000B9C04500143C3F8101A4FF48053C8F228135B
S31560000BACD3F8001A0143C3F8001A42F28033C0F23C
S31560000BBC000319680131196004EE162F704714EEA4
S31560000BCC163F002204EE162F42F28032C0F200026B
S31560000BDC126832B142F28032C0F2000211680139F9
S31560000BEC116042F28032C0F200021268BAB94FF458
S31560000BFC8051C8F22801D1F8102A45F6FB20024034
S31560000C0C42F42542C1F8102A4FF48051C8F22811DB
S31560000C1CD1F8002A024042F42542C1F8002A04EEBB
S31560000C2C163F704770B5020AC0B24B7813F0400F8E
S31560000C3C45D04FF44064C8F20314A55C012383408D
S31560000C4CDBB22B43A3540023C8F20A03032844D80F
S31560000C5C02F5A07C53F83C504FEAC00EFF2404FA10
S31560000C6C0EF425EA04054C7804F03F0404FA0EF4FD
S31560000C7C2C4343F83C400C7814F0080F45D002F531
S31560000C8CC07553F825404FEA800E4FF00F0C0CFAE6
S31560000C9C0EFC24EA0C0C0C78240904FA0EF444EAD3
S31560000CAC0C0443F82540134493F800440A78C2F3C5
S31560000CBCC0028240D2B2224383F8002470BD4FF446
S31560000CCC4063C8F203139C5C0125854024EA050445
S31560000CDC9C540023C8F20313B8E702F5A07E03EB1D
S31560000CECCE0EDEF80450A0F1040C4FEACC0CFF24B7
S31560000CFC04FA0CF425EA04054C7804F03F0404FA73
S31560000D0C0CF42C43CEF80440B5E79D1895F800E436
S31560000D1C01248440E4B26FEA040C5FFA8CF60CEAA8
S31560000D2C0E0C85F800C491F800C00CF00605022D77
S31560000D3C1DD00D78C5F34105012DBFD91CF0010FEF
S31560000D4C26D19C5C34409C5402F5807233F8124078
S31560000D5CA4B240000325854024EA05040978C1F352
S31560000D6C41018140214389B223F81210A6E702F5AE
S31560000D7C807233F8121089B245000324AC4021EA24
S31560000D8C04010120A840014389B223F8121095E7AB
S31560000D9C9D5C2C439C54D7E738B50546FFF7E6FEB9
S31560000DAC002407E0696801EBC4018888FFF73AFF05
S31560000DBC0134A4B22B88A342F4D8FFF700FF38BDE8
S31560000DCC70B50446FFF7D2FE4FF0000C63466246E0
S31560000DDC23E043F0080343EA000E01EB410004EB09
S31560000DEC4000C37B012B34D001EB410304EB43037E
S31560000DFC9B7C5B01DBB243EA0E03DBB201F1004084
S31560000E0C00F5202080F80C3E01EB410004EB40001D
S31560000E1C807B01282FD00132D2B2032A31D81146F9
S31560000E2C02EB420304EB43031B8A4FEA132ED8B240
S31560000E3C02F1004303F5202393F80C3E03F0800384
S31560000E4CBEF1100FC5D0BEF1120FC4D143F0100322
S31560000E5CC1E7C07C4001C0B240EA0E03DBB200259C
S31560000E6CC8F20A0595F8106E01208840C0B230436E
S31560000E7C85F8100EC2E700FA01F1C9B241EA0C0C12
S31560000E8CC9E74FF0000E72460DE004EB4100407866
S31560000E9C0001C0B2034301F1004101F5202181F844
S31560000EAC023E0132D2B2012A2DD8114602EB8200E3
S31560000EBC2044C67914F812502E4302F1004505F50C
S31560000ECC202585F8006E00790128DED10020C8F255
S31560000EDC0A00831893F8023E03F0880302EB82053E
S31560000EEC25446E791E43AB799B00DBB233432D7A76
S31560000EFC02F5607600EB8600057101209040C0B269
S31560000F0C40EA0E0EC1E74FEA8E0E4EEA0C1E0EF04C
S31560000F1CFC0E0023C8F20A0383F811EEFFF74FFEAE
S31560000F2C70BD10B50C4645F25423C5F24F030360F1
S31560000F3C81600846FFF730FFA068FFF741FF00208D
S31560000F4C10BD022800D0704708B541F24061C0F26E
S31560000F5C000142F2C020C0F20000FFF7E2FF08BDBC
S31560000F6C000000000000000000000000000000000F
S31560000F7C00000000000000000000000000000000FF
S31560000F8C00000000000000000000000000000000EF
S31560000F9C00000000000000000000000000000000DF
S31560000FAC00000000000000000000000000000000CF
S31560000FBC00000000000000000000000000000000BF
S31560000FCC00000000000000000000000000000000AF
S31560000FDC000000000000000000000000000000009F
S31560000FEC000000000000000000000000000000008F
S31560000FFC000000000000000000000000000000007F
S3156000100C000000000000000000000000000000006E
S3156000101C000000000000000000000000000000005E
S3156000102C000000000000000000000000000000004E
S3156000103C000000000000000000000000000000003E
S31560001A1C18F09FE518F09FE518F09FE518F09FE524
S31560001A2C18F09FE518F09FE518F09FE518F09FE514
S31560001A3C61201000612010006120100061201000F0
S31560001A4C61201000612010007C23100061201000C2
S31560001A5CF0B583B042F2B023C0F2000393E8030002
S31560001A6C02AB03E90300BDF80030002B64D1FEE73E
S31560001A7C019B33F811204FEA122E0023C8F2031390
S31560001A8C13F80E00D2B24FF0010C0CFA02F220EAF7
S31560001A9C020203F80E206144BDF800308B42E7D891
S31560001AAC62B641F2A853C0F200039F683A681E689A
S31560001ABC59683046904741F20463C0F200039D6852
S31560001ACC2A681C6859682046904742F2EC23C0F29B
S31560001ADC00035A68116841F22052C0F200024A6053
S31560001AEC42F2CC22C0F20002906859680B686830EA
S31560001AFC98600B683020186141F27453C0F2000391
S31560001B0C41F21C50C0F200001860926808325A60AC
S31560001B1C04229A606B68096820469847EB682046F1
S31560001B2C98476B690021204698473B693046984731
S31560001B3C7B68304698471EE00021ADE7019B33F881
S31560001B4C10304FEA132E0022C8F2031212F80EC0A0
S31560001B5CD9B201238B40DBB28CEA030302F80E3058
S31560001B6C0130BDF800308342E8D84FF47A714FF4F7
S31560001B7CFA7001F073F80020F3E742F2BC23C0F26E
S31560001B8C00031A6801321A60704708B5FFF760FFE8
S31560001B9C002008BD00280ADB00F01F024009012363
S31560001BAC9340A030800000F11440436070472030B1
S31560001BBC012383400022C9F21142C2F88032704779
S31560001BCC30B500282ADB43094FF0144E20339B00B6
S31560001BDC73445C6800F01F0C012505FA0CF52C4368
S31560001BEC5C604FEA900C0CF5847C5EF82C4000F03F
S31560001BFC0303DB00FF259D4024EA05044EF82C40C8
S31560001C0C5EF82C400333994021434EF82C1043F276
S31560001C1C4823C0F2100343F8202030BD00F12003A6
S31560001C2C4FF0000CC9F2114CDCF8804001259D4048
S31560001C3C2C43CCF880404FEA930E0EF5807E5CF810
S31560001C4C2E4003F00303DB00FF259D4024EA0504C8
S31560001C5C4CF82E405CF82E400333994021434CF8E7
S31560001C6C2E1000F5F07043F24823C0F2100343F8CF
S31560001C7C2020D2E700280CDB430940339B0003F19C
S31560001C8C14435A6800F01F00012181400A435A60D0
S31560001C9C704720300023C9F21143D3F8002101218B
S31560001CAC81400A43C3F80021704700280EDB00F020
S31560001CBC1F024009012393406030800000F11440FC
S31560001CCC4360BFF34F8FBFF36F8F70472030012394
S31560001CDC83400022C9F21142C2F88031F1E710B597
S31560001CEC0446FFF76DFF2046FFF754FF2046FFF7CB
S31560001CFCC1FF10BD8368C2689A6000207047836814
S31560001D0CC2685A60002070478368C268DA60002037
S31560001D1C704730B44368DB695A6842F00042996890
S31560001D2C41F00044D96841F0004185686C61846873
S31560001D3CA16181680A6182681969516282685B690E
S31560001D4C9362002030BC70474A1E83689A6643686B
S31560001D5C1B782BB94908013983685965836899657D
S31560001D6C8368D96A11F0010F07D15A6683684FF4FC
S31560001D7CAA021A648368C268DA60002070478368B6
S31560001D8CDB6AC3F300030B7183689B6C0B600020EA
S31560001D9C70474161C26183610020704740F2031352
S31560001DACC0F2021303600020704700207047416048
S31560001DBC01230374C368C3F311030BB100230374CB
S31560001DCC0B7C062B0BD803F5100320331B028360A8
S31560001DDC4B6943618B69C361002383617047DA1F6A
S31560001DECD2B2062A06D84FF6F972C0F27F021A44AE
S31560001DFC1302ECE74FF6F272C0F280021A44130239
S31560001E0CE5E782684FF0004313618268536182682C
S31560001E1C936182680023536282689362704708B547
S31560001E2CFFF7EFFF002008BD10B5041E00DA10BDE9
S31560001E3C2046FFF73AFF43F24823C0F21003002214
S31560001E4C43F82420F3E7002800DA704708B5FFF75B
S31560001E5C46FF08BD10B54368DC69B3F9123013F15F
S31560001E6C200F04DB8268936B23F040039363B4F911
S31560001E7C263013F1200F04DB8268936B23F0010389
S31560001E8C9363B4F9283013F1200F04DB8268936BEB
S31560001E9C23F002039363B4F92A3013F1200F04DBA9
S31560001EAC8268936B23F0805393634368B3F9120093
S31560001EBCFFF7BAFFB4F92600FFF7B6FFB4F92800AE
S31560001ECCFFF7B2FFB4F92A00FFF7AEFF10BD10B5ED
S31560001EDC002404608268C168916083685C63FFF764
S31560001EECB9FF204610BD38B504464368DD69B3F9C1
S31560001EFC123013F1200F09DB8268936BC3F38113E5
S31560001F0C43F00103916B63F387119163B5F9263046
S31560001F1C13F1200F04DBA268936B43F00103936308
S31560001F2CB5F9283013F1200F04DBA268936B43F0EC
S31560001F3C02039363B5F92A3013F1200F04DBA26810
S31560001F4C936B43F08053936363682246597CB3F971
S31560001F5C1200FFF778FF224695F82210B5F9260095
S31560001F6CFFF771FF224695F82310B5F92800FFF7A5
S31560001F7C6AFF224695F82410B5F92A00FFF763FF2D
S31560001F8C38BD83685B6E013311B9022353607047A9
S31560001F9C8B4202D8032353607047481E106070470B
S31560001FAC30B583B0054614464FF0FF3300930023DB
S31560001FBC01936A46FFF7E5FF032C06D8DFE804F0C9
S31560001FCC02181C20AB68009A5A65AA68136B012C20
S31560001FDC05D023F44033019943EA014324B123F03D
S31560001FEC4073019943EA01631363002003B030BD6B
S31560001FFCAB68009A9A65E8E7AB68009ADA65E4E73D
S3156000200CAB68009A1A66E0E78368DB6AC3F3C3536E
S3156000201CC26812F07F0F10D00022C8F228125168E5
S3156000202C51685268C2F3401242F2A011C0F200012C
S3156000203C0E3251F82200D84070470022C8F228129E
S3156000204C516851685268C2F3401242F2A011C0F254
S3156000205C0001083251F82200EDE710B50C46836892
S3156000206C5B6E01338B60FFF7CFFF606001232370DB
S3156000207C002010BD0B0143EA811343F48073027890
S3156000208C022A02D021B1092000E0092018437047CA
S3156000209C0620FBE730B585B004468C461546836949
S315600020ACB3B193E807000DF1100E0EE9070083F843
S315600020BC04C09D60E2691A60626918469047A3691C
S315600020CC23B104AA12E9070083E8070005B030BD06
S315600020DC01ABECE7F8B543F20423C0F210031A78AF
S315600020EC013A43F20823C0F2100333F9126043F24B
S315600020FC4823C0F2100353F82640054670B9A3680E
S3156000210CDF6C63681B78012B0BD063692BB1691C80
S3156000211C3A46C9B22046FFF7BDFFF8BDA3681F6DEE
S3156000212CEFE72046FFF76DFE3046FFF733FDECE731
S3156000213C70B504460D46CE69012002F16FF914EEB6
S3156000214C162F002304EE163F287C0D280BD84FF46F
S3156000215C4273C8F228031968062809D90D285ED877
S3156000216C6FF0040006E04FF44673C8F22813F2E7EA
S3156000217C6FF00200014019602B7C0D2B52D84FF486
S3156000218C4271C8F228010968062B50D84FF40051E9
S3156000219CC9F200014968062B53D84FF40051C9F2B5
S315600021AC00014968062B56D84FF40051C9F200015C
S315600021BC4968062B59D84FF40051C9F20001496899
S315600021CC062B5CD84FF40053C9F200035B6804EE2F
S315600021DC162F012002F1E8F8A3684FF425421A6025
S315600021ECA2680023D362A268D363A26893642B7A35
S315600021FC96F82520DB0543EA02236D68013DA2684B
S3156000220CD3622046FFF7FDFDA368B269DA61A36865
S3156000221CF2691A62A3689D66A3685D6670BD6FF00D
S3156000222C0800A7E74FF44671C8F22811ABE70D2BEF
S3156000223C03D84FF000414968ADE74FF0014149685A
S3156000224CA9E70D2B03D84FF000414968AAE74FF078
S3156000225C01414968A6E70D2B03D84FF00041496848
S3156000226CA7E74FF001414968A3E70D2B03D84FF060
S3156000227C00414968A4E74FF001414968A0E70D2B7E
S3156000228C03D84FF000435B68A1E74FF001435B68EE
S3156000229C9DE72DE9F04182B004460D46D1F81C80CD
S315600022ACFFF746FF4FF0FF330093002301932B7823
S315600022BC1BB96B685B08013B00932B78012B49D8E3
S315600022CCA268009B5365A2689365019B1F0647EA4B
S315600022DC034798F80030002B42D098F80110284636
S315600022ECFFF7C8FE064698F8023033B198F803102B
S315600022FC2846FFF7BFFE46EA0046A26800235364F1
S3156000230CA268C2F8A830A2689363A268C2F8883043
S3156000231C98F8203046EA433698F8213046EA4376F8
S3156000232CA3684FF4AA021A642B78012B1AD0A368FF
S3156000233CE268DA60A3685E63A36847F003021A6317
S3156000234CA36847F001071F632046FFF7CCFD02B078
S3156000235CBDE8F0816A46E9682046FFF712FEAFE7F2
S3156000236C0026C0E7A2680023D364A2681365DEE783
S3156000237C70B505460C460B7C062B0AD8012202FA70
S3156000238C03F3C3602046FFF710FD064688B130465E
S3156000239C70BDDA1FD2B2062A05D8073B012202FAB3
S315600023AC03F3C360EEE70E3B012202FA03F3C3604C
S315600023BCE8E721462846FFF7FAFC21462846FFF750
S315600023CC68FF45F25403C0F247032B60DFE710B594
S315600023DC43F20423C0F210031A78013A43F208233D
S315600023ECC0F2100333F9120043F24823C0F2100313
S315600023FC53F8204063681B78012B07D0636923B1BF
S3156000240C002211462046FFF745FE10BDA368E26820
S3156000241C9A60A26800239364A268D364A268136569
S3156000242CFFF7B8FBEAE708B50020FFF753FE08BDD7
S3156000243C00280ADB00F01F02400901239340A030FC
S3156000244C800000F1144043607047203001238340C4
S3156000245C0022C9F21142C2F88032704730B50028AA
S3156000246C2ADB43094FF0144E20339B0073445C689F
S3156000247C00F01F0C012505FA0CF52C435C604FEA45
S3156000248C900C0CF5847C5EF82C4000F00303DB00AA
S3156000249CFF259D4024EA05044EF82C405EF82C403E
S315600024AC0333994021434EF82C1043F24823C0F273
S315600024BC100343F8202030BD00F120034FF0000CD0
S315600024CCC9F2114CDCF8804001259D402C43CCF8B8
S315600024DC80404FEA930E0EF5807E5CF82E4003F03A
S315600024EC0303DB00FF259D4024EA05044CF82E40CF
S315600024FC5CF82E400333994021434CF82E1000F5BE
S3156000250CF07043F24823C0F2100343F82020D2E760
S3156000251C00280CDB430940339B0003F114435A68D3
S3156000252C00F01F00012181400A435A607047203039
S3156000253C0023C9F21143D3F80021012181400A43DB
S3156000254CC3F80021704700280EDB00F01F0240091B
S3156000255C012393406030800000F114404360BFF368
S3156000256C4F8FBFF36F8F704720300123834000225B
S3156000257CC9F21142C2F88031F1E710B50446FFF793
S3156000258C6DFF2046FFF754FF2046FFF7C1FF10BDD5
S3156000259C79B103094FF0144C03F202335CF8232033
S315600025AC00F00F004000022181400A434CF82320C2
S315600025BC704703094FF0144C03F202335CF8232086
S315600025CC00F00F0040000221814022EA01024CF823
S315600025DC2320704782B001910092019B009B0620DC
S315600025EC02B0704743685B685B78D90803F00703F1
S315600025FC026903EB011302EB831304229A62002037
S3156000260C70470620704743685B684FF0FF328A60FC
S3156000261C0A605B784FEAD30C03F007034A600269E1
S3156000262C03EB0C1302EB83131B6ACB600020704721
S3156000263C70B5044643685D686A78D00802F0070195
S3156000264C4AF6AB2CCAF6AA2CACFB023C4FEA5C03EE
S3156000265C0CF0FE0E0EEB5C0CA2EB0C02D2B22E78DA
S3156000266C002E3BD102339B0003F1004303F510238C
S3156000267C5E6E02EB82024FEA420C40F2FF3202FAC5
S3156000268C0CF232435A66236901EB001203EB821398
S3156000269C02229A62226901EB001302EB8313203348
S315600026AC5B6813F0040FF5D101EB001102EB81129C
S315600026BC08239362EB6913B3B5F90200FFF743FF86
S315600026CCB5F90230002B1EDB43F24822C0F2100231
S315600026DC002142F823100020206070BD08339B0057
S315600026EC03F1004303F510235E6E02EB8202520087
S315600026FC40F2FF3C0CFA02F232435A66C3E76B6A4D
S3156000270C002BD9D1E7E703F5F07343F24822C0F208
S3156000271C1002002142F82310DDE740F2031363F345
S3156000272C1F4303600020704710B443685B685B7896
S3156000273CD90803F00703026903EB011402EB841258
S3156000274C08249462027A42B9026903EB011402EB23
S3156000275C8412D46A24F08074D462026903EB011388
S3156000276C02EB831301229A6200205DF8044B7047DA
S3156000277C08B5FFF7D9FF08BD43685B6859784FEA1F
S3156000278CD10C01F00701036901EB0C1203EB821308
S3156000279C02229A62026901EB0C1302EB831320335B
S315600027AC5B6813F0040FF5D101EB0C1302EB83128B
S315600027BC08239362037A43B9036901EB0C1103EBAB
S315600027CC8113DA6A42F08072DA62704708B5FFF7F5
S315600027DCD3FF002008BD2DE9F041054643685C68CF
S315600027EC66784FEAD60806F00706FFF7C5FFA77EA0
S315600027FC07F00107E369002B51D0A168B4F9020018
S3156000280CFFF7C6FE2A462179B4F90200FFF7B5FE3A
S3156000281C61784AF6AB22CAF6AA22A2FB01325008AC
S3156000282C02F0FE0303EB5203C91ACBB22278002ADC
S3156000283C39D1821C920002F1004202F51022516ECF
S3156000284C03EB83035B0040F2FF329A4021EA0201FC
S3156000285CB4F80CC040F2F51EF44501D00CFA03F244
S3156000286C0A43831C9B0003F1004303F510235A664D
S3156000287C2B6903EB8823C3F8007362692B6906EB3B
S3156000288C081603EB86139A636369EB602B6903EB9B
S3156000289C8613DA6A42F00042DA62BDE8F081636A56
S315600028AC002BAAD1B4E700F10802920002F10042B3
S315600028BC02F51022516E03EB8302520040F2FF3395
S315600028CC934021EA0301B4F80CC040F2F51EF445BE
S315600028DC01D00CFA02F3194300F108039B0003F1D3
S315600028EC004303F510235966C2E7A0F58013B3F5D0
S315600028FC803F28BFB0F5002F34BF01200020704701
S3156000290C38B50C46FFF7F1FF40B900252046FFF7B6
S3156000291CECFF08B145F40055284638BD2025F5E78F
S3156000292C2DE9F84F06460F4643685D68D1F814A04A
S3156000293C95F801804FEAD80908F00708FFF71CFFE5
S3156000294CAB7E03F001036C7804F007042A7CD2009A
S3156000295C02F008021443EA7B120102F0700214437F
S3156000296CAA7B120202F4E06214439AF80020120366
S3156000297C92B214439AF80120120402F470221443A2
S3156000298CF978C1F3810242F29810C0F20000825CC1
S3156000299C120502F480121443BA78C2F38102825C87
S315600029AC520502F400121443890942F29C12C0F2D9
S315600029BC0002525C920502F480021443EA69002A12
S315600029CC00F0AF8024F0807443F0020BA968B5F96F
S315600029DC0200FFF7DDFD32462979B5F90200FFF7F3
S315600029ECCCFD6B7C2BB144F080745B0703F0C04369
S315600029FC1C4369784AF6AB22CAF6AA22A2FB0132BC
S31560002A0C500802F0FE0303EB5203C91ACBB22A78C4
S31560002A1C002A40F08E80821C920002F1004202F580
S31560002A2C1022516E03EB83035B0040F2FF329A4037
S31560002A3C21EA0201B5F80CC040F2F51EF44501D04E
S31560002A4C0CFA03F20A43831C9B0003F1004303F563
S31560002A5C10235A66336903EB8923C3F800B378688D
S31560002A6CFFF743FF002800F086807A6802F1005277
S31560002A7C316908EB09139B01CA50B868FFF735FF3B
S31560002A8C00287AD0B96801F10051336908EB091254
S31560002A9C03EB821359603369396903EB82139960CE
S31560002AAC336903EB8213DC623369298B03EB821384
S31560002ABC1A6B61F30F021A637868B968FFF720FF27
S31560002ACC04466B7C2BB3DAF804502F683846FFF754
S31560002ADC0CFF08B107F10057336908EB091203EBD9
S31560002AEC8213DF606F683846FFF7FFFE08B107F1A7
S31560002AFC0057336908EB091203EB82131F613369C4
S31560002B0CA96803EB8213596169682868FFF7F8FEB8
S31560002B1C0443336908EB091803EB88135C63BDE85F
S31560002B2CF88F9B466A6A002A7FF44CAF44F0807437
S31560002B3C57E700F10802920002F1004202F51022FA
S31560002B4C516E03EB83035A0040F2FF33934021EA44
S31560002B5C0301B5F80CC040F2F51EF44501D00CFA31
S31560002B6C02F3194300F108039B0003F1004303F5DC
S31560002B7C102359666EE77A687AE7B96885E738B5DF
S31560002B8C04464D6841602B7803F5002380331B03A4
S31560002B9C0361AB7C93B1012B15D044F24313C4F2A1
S31560002BAC4D4323602B786A7802EB031242F20033B2
S31560002BBCC0F2000343F82240002038BD0372096856
S31560002BCCFFF7AEFEE9E70372FFF705FEE5E710B522
S31560002BDC0446FFF7A5FE2046FFF7A6FD00B910BD1B
S31560002BEC1320FCE710B584B043F20423C0F2100343
S31560002BFC1A78013A43F20823C0F2100333F9122013
S31560002C0C43F24823C0F2100353F8222053685C68E1
S31560002C1C6378D80803F00703116903EB001301EB23
S31560002C2C831120208862126902EB83139B6A0393DB
S31560002C3C039B636A13B1B4F90C009847E36933B12B
S31560002C4C226A029200228DF8042001A8984704B0EB
S31560002C5C10BDA0F101000028FBD1704708B501FB3F
S31560002C6C00F343F20022C0F21002116841F259726D
S31560002C7CCDF2B712A2FB0121490B4FF44A42C3F6BF
S31560002C8C9A32B2FBF1F24FEAD36E4FEA431CBCEBBD
S31560002C9C030C6EF1000E4FEA8E0E4EEA9C7E4FEAE6
S31560002CAC8C0C1CEB030C4EF1000E4FEACE0E4EEA6A
S31560002CBC5C7E4FEACC0C4FF0FF3060454FF0000065
S31560002CCC70EB0E000ED3194649F28060C0F2980084
S31560002CDC0023A1FB000100F027F8800808B1FFF77C
S31560002CECB8FF08BD9200B3FBF2F342F2107202FB1E
S31560002CFC03F3DA0E5801C01A62F10002920042EA3E
S31560002D0C90728000C01842F10003DB0043EA5073F6
S31560002D1CC0004FF0FF3282424FF000029A41DDD282
S31560002D2C4FF0FF30DBE7000053B94AB9002908BF02
S31560002D3C00281CBF4FF0FF314FF0FF3000F090B809
S31560002D4CADF1080C6DE904CE00F006F8DDF804E090
S31560002D5CDDE9022304B070472DE9F04390420D463D
S31560002D6C75EB0301044638BF0020079F38BF014648
S31560002D7C64D3B3FA83F6002B69D0B5FA85F1002DCE
S31560002D8C61D0761AA6F1200CC6F1200EB34002FA79
S31560002D9C0CF102FA06F80B4322FA0EF2444543EAAA
S31560002DAC020375EB03023CBF002001460AD30120E7
S31560002DBCB4EB080465EB030500FA0CF120FA0EF28D
S31560002DCC1143B040D6B34FEA5802B04642EAC372DA
S31560002DDC5B080AE0A41A65EB030524196D410134FE
S31560002DEC45F10005B8F1010808D0944275EB03096A
S31560002DFCF0D224196D41B8F10108F6D1001905FA23
S31560002E0C0EFE24FA06F441EB050125FA0CFC44EAA5
S31560002E1C0E0444EA0C04F540A6F1200CC6F120031E
S31560002E2C05FA06F204FA0CFC24FA03F342EA0C02E5
S31560002E3C1A4304FA06F3C01A61EB02010FB1C7E933
S31560002E4C0045BDE8F083B4FA84F1203199E7B2FA13
S31560002E5C82F6B5FA85F12036002D92D1F3E700BFE4
S30960002E6C704700BF86
S30D60002E70F4FEFF7F0100000083
S31560002E7CFF000000E803000090010000580200000B
S31560002E8CBC0200002003000084030000E80300007D
S31560002E9C4C040000900100009001000058020000F4
S31560002EAC20030000E803000000000008000000009A
S31560002EBC0000000000000000000000006C1500001F
S31560002ECC0202000074150000000000000000000003
S31560002EDC010000000000000000000000000000007F
S31560002EEC0000000000100000000000100000000050
S31560002EFC001000000000001000000000CC22000052
S31560002F0CB41500003C210000020000009001000096
S31560002F1C00000000C8000000010C830000000000E7
S31560002F2C00000000D4150000010000000000000045
S31560002F3C000000000000000000000000000000001F
S31560002F4C000000000000000000000CFFFF007D0088
S31560002F5CDFFFDFFF00000000EC220000101600000F
S31560002F6C70210000541500001816000000001500B2
S31560002F7C0C000000000000007D0002010003000050
S31560002F8C00000000000000002B02000000000000A2
S31560002F9C000000007E0000004C160000801500004A
S31560002FAC080000000000000018000000010000008E
S31560002FBC080000000200000018000000030000007A
S31560002FCC0800000005000000082200000600000052
S31560002FDC1822000002010000082200000301000014
S31560002FEC1822000004010000082200000501000000
S31560002FFC0822000004020000180000000502000010
S3156000300C082200000602000008000000070200000B
S3156000301C28220000070300000200000002040000E2
S3156000302C9801000002050000A801000003050000DD
S3156000303C08000000050500000822000007050000D6
S3156000304C08220000000600000800000001060000CF
S3156000305C0822000002060000082200000306000099
S3156000306C08220000040600000800000005060000A7
S3156000307C08000000060600000800000007060000B5
S3156000308C08000000000700000800000001070000AF
S3156000309C080000000207000008000000030700009B
S315600030AC280000000407000004000000020800006D
S315600030BC0800000004080000080000000508000075
S315600030CC0800000006080000080000000708000061
S315600030DC080000000009000008000000010900005B
S315600030EC0822000003090000082200000409000001
S315600030FC08220000050900000822000006090000ED
S3156000310C082200000709000008000000000A000001
S3156000311C08000000010A000008000000020A000016
S3156000312C08000000030A000018000000040A0000F2
S3156000313C02000000050A000002000000060A0000FA
S3156000314C02000000000B000002000000030B0000F0
S3156000315C02000000040B000002000000060B0000D9
S3156000316C08220000070B000008220000000C00007B
S3156000317C08220000010C000008220000020C00006E
S3156000318C08220000030C000008000000040C00007C
S3156000319C08220000050C000018220000060C000036
S315600031AC18220000070C000008220000000D000029
S315600031BC08220000010D000002000000020D000054
S315600031CC08220000030D000008220000040D000018
S315600031DC02000000070D000002000000010E000056
S315600031EC18000000020E000008220000040E000009
S315600031FC02000000050E000008220000060E00000A
S3156000320C08220000070E000008220000000F0000D4
S3156000321C08220000010F000008220000020F0000C7
S3156000322C08220000030F000008220000040F0000B3
S3156000323C08220000050F000008220000060F00009F
S3156000324C08220000070F00000800000001100000B3
S3156000325C0200000003100000182200000510000098
S3156000326C282200000610000058000000051100001E
S3156000327C180100000611000048220000071100002A
S3156000328C48220000001200003822000004120000E0
S3156000329C38220000051200005822000006120000B9
S315600032AC382200000712000008000000001300001E
S315600032BC0400000003130000040000000413000067
S315600032CC0400000006130000040000000713000051
S315600032DC040000000014000004000000011400004B
S315600032EC0400000002140000040000000314000037
S315600032FC04000000041400002801000005140000FE
S3156000330C28010000061400000400000000150000EF
S3156000331C08220000011500000822000002150000BA
S3156000332C08220000031500000822000004150000A6
S3156000333C1822000005150000182200000715000071
S3156000334C182200000016000008220000011600007A
S3156000335C1822000002160000280100000616000064
S3156000336C2801000007160000040000000417000086
S3156000337C0800000007170000080000000018000095
S3156000338C0800000001180000080000000218000088
S3156000339C00000000000000000000000000000000BB
S315600033AC00000000000000000000000000000000AB
S315600033BC000000000000000000000000000000009B
S315600033CC000000000000000000000000000000008B
S315600033DC000000000000000000000000000000007B
S315600033EC00000000951200000000000000000000C4
S315600033FC000000000000000000000000000000005B
S3156000340C000000000000000000000000000000004A
S3156000341C000000000000000000000000000000003A
S3156000342C000000000000000000000000000000002A
S3156000343C000000000000000000000000000000001A
S3156000344C000000000000000000000000000000000A
S3156000345C00000000000000000000000000000000FA
S3156000346C00000000000000000000000000000000EA
S3156000347C00000000000000000000000000000000DA
S3156000348C00000000000000000000000000000000CA
S3156000349C00000000000000000000000000000000BA
S315600034AC00000000000000000000000000000000AA
S315600034BC000000000000000000000000000000009A
S315600034CC000000000000000000000000000000008A
S315600034DC000000000000000000000000000000007A
S315600034EC000000000000000000000000000000006A
S315600034FC000000000000000000000000000000005A
S3156000350C0000000000000000000000000000000049
S3156000351C0000000000000000000000000000000039
S3156000352C0000000000000000000000000000000029
S3156000353C0000000000000000000000000000000019
S3156000354C0000000000000000000000000000000009
S3156000355C00000000000000000000000000000000F9
S3156000356C00000000000000000000000000000000E9
S3156000357C00000000000000000000000000000000D9
S3156000358C00000000D70A00000000000000000000E8
S3156000359C0000000000000000000000007F0A000030
S315600035AC00000000000000000000000000000000A9
S315600035BC0000000000000000000000000000000099
S315600035CC0000000000000000000000000000000089
S315600035DC0000000000000000000000000000000079
S31560003A9C210A0000AF030000A5030000B903000073
S31560003AACC3030000CF040000F903000051060000B8
S31560003ABC0B0700002F040000430400007F05000084
S31560003ACC4D0400002F1200007F120000850C0000D0
S31560003ADC210E00007D0E0000950C0000B30C00005A
S31560003AECB70C0000E10C0000CB0D000001000000DB
S31560003AFC000001000008AF2F0046C3230008AF2F5B
S31560003B0C0046C32300C2EB0B80D1F00800C2EB0B5E
S31560003B1C80D1F00800E1F505C068780480F0FA02FF
S31560003B2C60343C0240787D01301A1E010084D71740
S31560003B3C00A3E111C068780400D8B805C0687804A1
S31560003B4C00D8B805C068780400D8B805C068780491
S31560003B5C00D8B805C068780400D8B805C068780481
S31560003B6C00D8B805C068780400D8B805C068780471
S31560003B7C00D8B805C068780400D8B805C068780461
S31560003B8C00D8B80500B4C404005A6202AAAAAAAA4C
S31560003B9CAA0000000000000000A8AAAAAAAAAAAA65
S31560003BACAAAAAAAAAAAAAAAA00AAAAAAAAAAAAAAAD
S31560003BBCAAAAAAAAAAAAAAAAAAAAAAAAAAAAAAAAF3
S31560003BCCAAAAAAAAAAAAAAAA0A000000000000A881
S31560003BDCAA2A2AA82828282828282800000A2AA8D9
S31560003BEC2080AAA00200000000000000AA0AAAAA6F
S31560003BFCAAAAAAAAAAAAAA002A0A8A82010002006A
S31560003C0C0400080002000000B8220000061304132A
S70500102000CA
